{
  "contractName": "Deed",
  "abi": [
    {
      "inputs": [
        {
          "internalType": "address",
          "name": "_lawyer",
          "type": "address"
        },
        {
          "internalType": "address payable",
          "name": "_beneficiary",
          "type": "address"
        },
        {
          "internalType": "uint256",
          "name": "fromNow",
          "type": "uint256"
        }
      ],
      "stateMutability": "payable",
      "type": "constructor",
      "payable": true
    },
    {
      "inputs": [],
      "name": "beneficiary",
      "outputs": [
        {
          "internalType": "address payable",
          "name": "",
          "type": "address"
        }
      ],
      "stateMutability": "view",
      "type": "function",
      "constant": true
    },
    {
      "inputs": [],
      "name": "earliest",
      "outputs": [
        {
          "internalType": "uint256",
          "name": "",
          "type": "uint256"
        }
      ],
      "stateMutability": "view",
      "type": "function",
      "constant": true
    },
    {
      "inputs": [],
      "name": "lawyer",
      "outputs": [
        {
          "internalType": "address",
          "name": "",
          "type": "address"
        }
      ],
      "stateMutability": "view",
      "type": "function",
      "constant": true
    },
    {
      "inputs": [],
      "name": "withdraw",
      "outputs": [],
      "stateMutability": "nonpayable",
      "type": "function"
    }
  ],
  "bytecode": "0x60806040526040516102db3803806102db83398101604081905261002291610068565b600080546001600160a01b038086166001600160a01b031992831617909255600180549285169290911691909117905561005c81426100aa565b600255506100e6915050565b60008060006060848603121561007c578283fd5b8351610087816100ce565b6020850151909350610098816100ce565b80925050604084015190509250925092565b600082198211156100c957634e487b7160e01b81526011600452602481fd5b500190565b6001600160a01b03811681146100e357600080fd5b50565b6101e6806100f56000396000f3fe608060405234801561001057600080fd5b506004361061004c5760003560e01c806338af3eed146100515780633bfb6e311461006f5780633ccfd60b146100775780635dd65d3b14610081575b600080fd5b610059610096565b604051610066919061014b565b60405180910390f35b6100596100a5565b61007f6100b4565b005b610089610145565b60405161006691906101a7565b6001546001600160a01b031681565b6000546001600160a01b031681565b6000546001600160a01b031633146100e75760405162461bcd60e51b81526004016100de90610182565b60405180910390fd5b6002544210156101095760405162461bcd60e51b81526004016100de9061015f565b6001546040516001600160a01b03909116904780156108fc02916000818181858888f19350505050158015610142573d6000803e3d6000fd5b50565b60025481565b6001600160a01b0391909116815260200190565b602080825260099082015268546f6f206561726c7960b81b604082015260600190565b6020808252600b908201526a4c6177796572206f6e6c7960a81b604082015260600190565b9081526020019056fea2646970667358221220866e7a6016742adb6452e60e4068b3beb7081178dd60febac02d6b1f66ef7b1664736f6c63430008000033",
  "immutableReferences": {},
  "source": "// SPDX-License-Identifier: MIT \r\npragma solidity ^0.8.0;\r\n\r\ncontract Deed {\r\n\r\n    address public lawyer;\r\n    address payable public beneficiary;\r\n    uint public earliest;\r\n\r\n    constructor(\r\n        address _lawyer,\r\n        address payable _beneficiary,\r\n        uint fromNow\r\n        ) payable {\r\n        lawyer = _lawyer;\r\n        beneficiary = _beneficiary;\r\n        earliest = block.timestamp + fromNow;\r\n    }\r\n\r\n    function withdraw() public {\r\n        require(msg.sender == lawyer, 'Lawyer only');\r\n        require(block.timestamp >= earliest, 'Too early');\r\n        beneficiary.transfer(address(this).balance);\r\n    }\r\n}",
  "sourcePath": "C:\\Users\\cassi\\Documents\\DApps\\Deed\\contracts\\Deed.sol",
  "compiler": {
    "name": "solc",
    "version": "0.8.0+commit.c7dfd78e.Emscripten.clang"
  },
  "schemaVersion": "3.4.16",
  "updatedAt": "2023-11-14T12:42:50.207Z",
  "networkType": "ethereum",
  "devdoc": {
    "kind": "dev",
    "methods": {},
    "version": 1
  },
  "userdoc": {
    "kind": "user",
    "methods": {},
    "version": 1
  }
}